:020000021000EC
:108000000080002091E10100D9E10100DBE10100E5
:108010000000000000000000000000000000000060
:10802000000000000000000000000000DDE1010091
:108030000000000000000000DFE10100E1E10100BC
:10804000E3E10100E3E10100E3E10100A19C0100A3
:10805000E3E1010000000000E3E10100FDC90100CF
:10806000E3E10100E3E10100E3E10100E3E10100FC
:10807000E3E10100E3E10100E3E10100E3E10100EC
:10808000E3E10100898F0100E3E10100E3E1010088
:10809000D98F0100E3E1010005BB0100E3E101002C
:1080A000E3E10100E3E10100000000000000000046
:1080B00000000000000000000000000000000000C0
:1080C00010B5064C2378002B07D1054B002B02D0AE
:1080D000044800E000BF0123237010BDB42000203D
:1080E0000000000078E50100084B10B5002B03D01C
:1080F0000749084800E000BF07480368002B00D18B
:1081000010BD064B002BFBD09847F9E7000000009C
:10811000B820002078E50100B42000200000000015
:10812000164B002B00D1144B9D46402292029A1A06
:10813000924600218B460F461348144A121A00F04B
:1081400067F80F4B002B00D098470E4B002B00D048
:1081500098470020002104000D000D48002802D09F
:108160000C4800E000BF00F02DF82000290005F0C9
:108170004DFD00F011F8C04600000800008000200E
:108180000000000000000000B4200020B026002005
:108190000000000000000000084B10B50400002B98
:1081A00002D0002100E000BF054B1868836A002B55
:1081B00000D09847200000F033F8C04600000000CF
:1081C0003CE501000E4B70B500251E000D4CE41A75
:1081D000A410A54204D0AB00F35898470135F8E746
:1081E00006F0A0F9084B00251E00084CE41AA41064
:1081F000A54204D0AB00F35898470135F8E770BDAD
:10820000AC200020AC200020AC200020B0200020BA
:1082100003008218934202D019700133FAE77047C5
:10822000FEE7C04680B582B000AF78607B6803226D
:1082300013405A425341DBB21800BD4602B080BD24
:1082400080B582B000AF0200FB1D1A70064BFA1D0C
:10825000127811001F220A40012191400A001A6081
:10826000C046BD4602B080BD00E100E080B582B0EE
:1082700000AF0200FB1D1A70074AFB1D1B78190096
:108280001F230B40012199400B0019008023D1507E
:10829000C046BD4602B080BD00E100E080B582B0BE
:1082A00000AF0200FB1D1A70084AFB1D1B78190065
:1082B0001F230B40012199400B00190080235B0014
:1082C000D150C046BD4602B080BDC04600E100E0CE
:1082D00080B582B000AF0200FB1D1A70084AFB1D7A
:1082E0001B7819001F230B40012199400B00190036
:1082F000C0235B00D150C046BD4602B080BDC04621
:1083000000E100E0B0B582B000AF02003960FB1DB3
:108310001A70FB1D1B787F2B32D92F4CFB1D1B784D
:108320001A000F231340083B99082B4AFB1D1B78AA
:1083300018000F230340083B9B0806339B00D3180B
:1083400004331B68FA1D1278100003220240D20089
:10835000FF2090400200D2431A403B689B01FF205F
:108360001840FB1D1B781D0003232B40DB009840A9
:1083700003001A438B1D9B00E31804331A6027E0A7
:10838000164CFB1D1B785BB29B081449FA1D127832
:1083900052B29208C03292005258F91D0978080072
:1083A00003210140C900FF2088400100C94311405A
:1083B0003A689201FF201040FA1D1278150003223E
:1083C0002A40D200904002000A43C0339B001A5159
:1083D000C046BD4602B0B0BD00ED00E000E100E0E7
:1083E00080B582B000AF0200FB1D1A70FB1D1B7828
:1083F0007F2B18D9174AFB1D1B7819000F230B4040
:10840000083B9B0806339B00D31804331A68FB1DF6
:108410001B78190003230B40DB00DA401300FF2216
:1084200013409B0912E00C4AFB1D1B785BB29B08B2
:10843000C0339B009A58FB1D1B78190003230B4087
:10844000DB00DA401300FF2213409B091800BD46F1
:1084500002B080BD00ED00E000E100E080B582B038
:1084600000AF0C4B5B68DB05DB0D7B607B68002B92
:108470000AD07B68103B3B603B685BB21800FFF79B
:10848000AFFF0300DBB200E004231800BD4602B0DA
:1084900080BDC04600ED00E080B582B000AF7860DE
:1084A0000649A123DB007A68CA5003211120FFF797
:1084B00029FFC046BD4602B080BDC0460010014045
:1084C00080B582B000AF1749D1239B0080225202B1
:1084D000CA501449C1239B0080225202CA50112065
:1084E000FFF7F6FE1120FFF7ABFE0E4B01221A60DC
:1084F0002F237B607B6818000138C046C046C04609
:10850000C046C046C046C046C046C046C046C0463B
:10851000C046F1D1044B01221A70C046BD4602B0DC
:1085200080BDC04600100140F020002080B582B020
:1085300000AF1120FFF79AFE1F49D2239B00802233
:108540005202CA501C49C2239B0080225202CA50C8
:10855000194B01225A602F237B607B681800013879
:10856000C046C046C046C046C046C046C046C046DB
:10857000C046C046C046C046F1D10F4B01229A60AA
:108580000E4B00221A602F233B603B681800013815
:10859000C046C046C046C046C046C046C046C046AB
:1085A000C046C046C046C046F1D1054B00221A70F5
:1085B000C046BD4602B080BD00100140DC20002056
:1085C000F020002080B500AF024A034BD3581800BA
:1085D000BD4680BD001001400405000080B582B09A
:1085E00000AF786039607A683B68D31A1B021B0AB7
:1085F0001800BD4602B080BD80B582B000AF786083
:108600000449A823DB007A68CA50C046BD4602B0C0
:1086100080BDC0460010014080B586B000AF7860D4
:10862000284B1B68002B03D1264B7A681A6045E063
:108630007B681A68234B1B681B689A4210D8214B31
:108640001B68204A126811687A6812688A1A1A60D0
:108650001C4B1A687B68DA611A4B7A681A602DE045
:108660007B681B68FB60174B1B687B61154B1B68A5
:108670003B6109E03B691B68FA68D31AFB603B6900
:108680007B613B69DB693B613B69002B04D03B6943
:108690001A68FB689A42EDD33B69002B05D03B6911
:1086A0001A68FB68D21A3B691A607B68FA681A601C
:1086B0007B683A69DA617B697A68DA61C046BD46EF
:1086C00006B080BDD820002080B586B000AF7860AD
:1086D000224B1B687B617B693B6108E03A697B68E0
:1086E0009A4208D03B697B613B69DB693B613B692E
:1086F000002BF3D100E0C0463B69002B29D07A69FA
:108700003B699A4211D1154B1B68DA69134B1A6009
:10871000124B1B68002B08D1114B01229A60114BA0
:1087200000221A60104B01221A703B691B68FB6023
:108730003B69DA697B69DA617B69DB693B613B69CB
:10874000002B07D03B691A68FB68D2183B691A6096
:1087500000E0C046BD4606B080BDC046D82000201F
:1087600000100140DC200020F120002080B500AF87
:108770001120FFF793FDC046BD4680BD80B500AF18
:108780001420FFF78BFDC046BD4680BD80B584B088
:1087900000AF7860114B1B68002B15D00F4B1A6887
:1087A0007B6858697B689B69190090470300FB60F0
:1087B000FB68BB60BB68002B0CD0BB6800220021AB
:1087C000180000F069FD05E07B685A697B689B69C9
:1087D00018009047C046BD4604B080BDEC20002084
:1087E00080B584B000AF2C4B1B68002B50D0002309
:1087F0007B60FFF7E7FE0200284B1B6819001000A2
:10880000FFF7ECFE0300BB60234B1B68FB601EE020
:10881000FB681A68BB689A421DD8FB681B68BA6877
:10882000D31ABB60FB681B687A68D3187B60FB684F
:108830003B60FB68DB69FB603B681B7C002B06D060
:108840003B6800221A743B681800FFF79FFFFB6823
:10885000002BDDD100E0C046114B1A78114B1B787C
:108860009A420CD10F4B1B780133DAB20D4B1A70C0
:108870000C4B1B78022B02D10A4B00221A70094BB9
:108880001B781A00084B92007968D150FFF776FFE9
:10889000C046BD4604B080BDD8200020DC200020AA
:1088A000E8200020E9200020E020002080B582B0F0
:1088B00000AF7860184B1A78184B1B789A4223D077
:1088C000154B1B780133DAB2134B1A70124B1B781D
:1088D000022B02D1104B00221A700F4B1B781A008A
:1088E0000F4B9200D2587B681A607B681A680D4B58
:1088F0001B68D2180B4B1A600A4B1B681B021A0A22
:10890000084B1A60012303E07B6800221A600023F1
:108910001800BD4602B080BDE8200020E9200020FC
:10892000E0200020DC20002080B586B000AF364B70
:108930001B683B611723FB18344A12781A704EE00B
:10894000334B1A681723FB181B78DB00D318FB6026
:108950001623FB18FA6812781A7039E0FB68596818
:108960001623FB181A7813005B009B18DB00CB184A
:10897000BB601623FB181A781623FB1801321A70F5
:10898000FB689B781622BA1812789A4203D11623F4
:10899000FB1800221A70BB681B78022B02D0032B35
:1089A00010D014E0BB685B681800FFF78DFE0FE085
:1089B000154B1B687B607B6800221A747B68DA6940
:1089C000114B1A60104B1B68002BF1D100E0C04620
:1089D000FB685B781622BA1812789A42BED1172328
:1089E000FB181B781722BA18591E1170002BA7D13B
:1089F000054B1A683B69D31A5A1E9341DBB2180023
:108A0000BD4606B080BDC046D8200020D020002042
:108A1000D420002080B588B000AFF860B9607A60DB
:108A20000023FB6138E0204B1B68BB61BB691A68FF
:108A3000FB689A4206D9BB691A68FB68D21ABB69FF
:108A40001A602DE0BB691B68FA68D31AFB60BB692A
:108A50001B68FA69D318FB61BB6900221A60124BCC
:108A60001B687B61BB69DA690F4B1A60BB69DB6805
:108A7000002B11D0BA68FB69D3181B021A0ABB6914
:108A80005A60BB69DA68BB699A607B681A68BB691F
:108A9000DA617B687A691A60034B1B68002BC2D1CC
:108AA000C046BD4608B080BDD820002080B588B043
:108AB00000AF78605C4B1B687B611F23FB185B4A2F
:108AC00012781A709BE05A4B1A681F23FB181B7808
:108AD000DB00D3183B6187E07B68002B05D07B6807
:108AE000BB61BB69DB697B603CE03B695A683B6901
:108AF0001B7819000B005B005B18DB00D318FB60D0
:108B00003B691B780133DAB23B691A703B691A780A
:108B10003B699B789A4202D13B6900221A70FB683C
:108B20005B68BB61FB681B78012B5DD1BB691B7C5B
:108B3000002B00D058E0FB689A68BB695A60FB685C
:108B4000DA68BB699A60FB681A69BB69DA60FB681E
:108B50005A69BB699A61374B1B78002B02D0BB69FD
:108B600000225A60BB695A68334B1B68D31A1B0238
:108B70001B0A324A93420ED8BB695A682E4B1B68B7
:108B800019001000FFF72AFD0200BB699B68D2188C
:108B9000BB691A6018E0284B1A68BB695B6819004A
:108BA0001000FFF71BFD0300BB60BB699A68BB6840
:108BB0009A4206D9BB699A68BB68D21ABB691A6027
:108BC00002E0BB6900221A60BB6900225A60BB69DF
:108BD00000229A60BB6901221A74BB690022DA6123
:108BE000BB691800FFF718FD7B68002B00D073E706
:108BF0003B691A783B695B789A4200D06CE71F2387
:108C0000FB181B781F22BA18591E1170002B00D0B8
:108C100059E7054B1A687B69D31A5A1E9341DBB298
:108C20001800BD4608B080BDD8200020D02000200C
:108C3000D4200020F1200020DC200020FEFF7F0057
:108C400090B589B000AF7860334B1B68002B5CD0C7
:108C5000314B1B681B68FB61FFF7B4FC0300BB6171
:108C60002E4B1B687B617A69BB6911001800FFF706
:108C7000B5FC030003333B61294B1B7801225340B1
:108C8000DBB2002B01D0FFF71BFCFA693B69934272
:108C900000D213007A69D3187B617B691B021B0A1F
:108CA0007B617B691800FFF7A7FCFFF78BFC0300D3
:108CB000FB60BA69FB6811001800FFF78FFC030026
:108CC000DC1CBA697B6911001800FFF787FC030000
:108CD0009C421CD9FFF776FC03001800FFF78CFCC0
:108CE0002F23BB60BB6818000138C046C046C04691
:108CF000C046C046C046C046C046C046C046C04644
:108D0000C046F1D1FFF732FD01E0FFF70FFCC0468E
:108D1000BD4609B090BDC046D8200020DC20002010
:108D2000F020002090B587B000AF00237B601E4B81
:108D30001B683B611D4B1B68FB600B23FC183B0051
:108D40001800FFF7B3FD030023701723FC18FFF78B
:108D5000EBFD030023700B23FB181B78002B09D0BD
:108D60003B683A1D39691800FFF754FE1723FB18BA
:108D700001221A707B681800FFF798FE031E03D0CB
:108D80001723FB1801221A701723FB181B78002BDE
:108D900003D0FB681800FFF753FF054B00221A7041
:108DA000C046BD4607B090BDDC200020D820002082
:108DB000F120002080B582B000AF78600A00FB1C73
:108DC0001A707B68FA1C12785A70C046BD4602B011
:108DD00080BDC04680B584B000AF786039607B68E4
:108DE0005A780F23FB1801321A707B689B780F2288
:108DF000BA1812789A4203D10F23FB1800221A7076
:108E00007B681B780F22BA1812789A4201D100238E
:108E100010E03B680F22BA1812781A707B685A6803
:108E20007B685B7819000B005B005B18DB00D318D4
:108E3000BB60BB681800BD4604B080BD80B586B07D
:108E400000AFF860B9607A603B601C4B1A68FB6841
:108E5000DB00D3181322BA1811001800FFF7BAFF6D
:108E600003007B617B69002B01D1042322E07B6935
:108E700001221A707B69BA685A60FFF7A3FB0200EF
:108E80007B699A607B697A68DA607B693A681A6103
:108E90007B693A6A5A61094B1A68FB68DB00D21891
:108EA0001323FB181B7819001000FFF783FFFFF74F
:108EB00065FC00231800BD4606B080BDD42000200C
:108EC00080B584B000AF78603960154B1A687B6854
:108ED000DB00D3180B22BA1811001800FFF77AFF35
:108EE0000300FB60FB68002B01D1042314E0FB6846
:108EF00002221A70FB683A685A60094B1A687B684C
:108F0000DB00D2180B23FB181B7819001000FFF7A9
:108F100051FFFFF733FC00231800BD4604B080BDAD
:108F2000D420002080B584B000AF7860154B1A685B
:108F30007B68DB00D3180B22BA1811001800FFF76A
:108F400049FF0300FB60FB68002B01D1042314E000
:108F5000FB6803221A70FB6800225A60094B1A68EA
:108F60007B68DB00D2180B23FB181B78190010005C
:108F7000FFF720FFFFF702FC00231800BD4604B0F6
:108F800080BDC046D420002080B500AF114AA02388
:108F90005B000021D1500F4AA2235B000021D15079
:108FA0000C4AA4235B000021D1500A4AA6235B008F
:108FB0000021D150074A80235B000021D150054A8F
:108FC00082235B000021D150FFF70AFCC046BD465A
:108FD00080BDC0460010014080B500AFFFF7A2FE83
:108FE000C046BD4680BDC04680B586B000AFF860C3
:108FF0007A603B600B23FB180A1C1A707B68180010
:10900000FFF710F903001A0001235340DBB2002BD5
:1090100001D007235AE07B68002B04D12D4B00229E
:109020001A60072352E0FFF781FA2B4B3A681A6067
:109030002A4B03221A70274B7A681A607B68183310
:109040007B6000237B6121E0224B1A687B69DB0097
:10905000D3183B613B6900221A703B6900225A70A9
:109060003B690B22BA1812789A703B697A685A6089
:109070000B23FB181A7813005B009B18DB001A0007
:109080007B689B187B607B6901337B617B69022B6A
:10909000DADD134B00221A60124B00221A70124BB9
:1090A00000221A701420FFF713F903211420FFF790
:1090B00029F91420FFF7C4F8FB681800FFF7ECF952
:1090C000FFF780FA0200094B1A6000231800BD4622
:1090D00006B080BDD4200020EC200020D02000204D
:1090E000D8200020E8200020E9200020DC200020FB
:1090F00080B586B000AFF8607A600B23FB180A1CBD
:109100001A70154B1B68002B01D108231FE07B68E8
:10911000002B01D107231AE0FB68002B01D10723A4
:1091200015E0FB681B681B7C002B01D008230EE0B8
:10913000FB681B687B617B6900221A747B690B22C8
:10914000BA1812785A747B697A685A610023180039
:10915000BD4606B080BDC046D420002080B582B098
:1091600000AFFFF77BF90300012B02D0032B03D0E4
:1091700005E000237B6005E001237B6002E0022321
:109180007B60C0467B681800BD4602B080BDC0460B
:1091900090B589B002AFF860B9607A60FB687B6116
:1091A000174B1B68002B01D1082324E0FB68002B20
:1091B00001D108231FE0BB68042B01D807231AE064
:1091C0007B695B69002B01D1082314E07B695B7C20
:1091D000012B01D1BB6800E000233B61FFF7BEFF1C
:1091E00004003869BA6879697B680093030020003D
:1091F000FFF724FE03001800BD4607B090BDC0462F
:10920000D420002080B584B000AF78607B68FB601C
:109210000F4B1B68002B01D1082314E07B68002B47
:1092200003D0FB685B69002B01D108230BE0FB68CE
:1092300000221A74FFF792FF0200FB681900100069
:10924000FFF73EFE03001800BD4604B080BDC046D7
:10925000D420002080B500AF074B1B68002B01D144
:10926000082306E0FFF77AFF03001800FFF75AFE15
:1092700003001800BD4680BDD420002080B500AF9B
:10928000BFF34F8F024B034ADA60BFF34F8FFEE705
:1092900000ED00E00400FA0580B584B000AFF8608E
:1092A000B9607A60FFF7EAFFC046BD4604B080BDF2
:1092B00080B582B000AF0200FB1D1A700F49FB1D84
:1092C0001B781A020D480E4BC3580E480340134337
:1092D0000B4A8B50FB1D1B78002B05D0074AA0239F
:1092E000DB000121D15004E0044AA023DB0000216F
:1092F000D150C046BD4602B080BDC046007000409F
:1093000004050000FF00FFFF80B584B000AF786067
:109310000023FB607B681B781A0003231340FA6864
:109320001343FB607B685B789B001C221340FA6848
:109330001343FB607B685B685B0160221340FA6843
:109340001343FB607B685A68C0239B02134007D01D
:109350007B685A68C0239B021340FA681343FB6082
:109360000020FFF7A5FF0749064A074BD258FF2305
:109370001B021A40FB681343034A8B50C046BD468C
:1093800004B080BD007000400405000080B584B0CA
:1093900000AF786014E07B68013B7B600C4BFB60A6
:1093A000FB6818000138C046C046C046C046C046EB
:1093B000C046C046C046C046C046C046C046F1D1C1
:1093C0007B68002BE7D1C046BD4604B080BDC046D7
:1093D000E703000080B582B000AF0200FB1D1A70E9
:1093E000064BFA1D127811001F220A4001219140FC
:1093F0000A001A60C046BD4602B080BD00E100E030
:1094000080B582B000AF0200FB1D1A70084AFB1D38
:109410001B7819001F230B40012199400B001900F4
:10942000C0235B00D150C046BD4602B080BDC046DF
:1094300000E100E0B0B582B000AF02003960FB1D72
:109440001A70FB1D1B787F2B32D92F4CFB1D1B780C
:109450001A000F231340083B99082B4AFB1D1B7869
:1094600018000F230340083B9B0806339B00D318CA
:1094700004331B68FA1D1278100003220240D20048
:10948000FF2090400200D2431A403B689B01FF201E
:109490001840FB1D1B781D0003232B40DB00984068
:1094A00003001A438B1D9B00E31804331A6027E066
:1094B000164CFB1D1B785BB29B081449FA1D1278F1
:1094C00052B29208C03292005258F91D0978080031
:1094D00003210140C900FF2088400100C943114019
:1094E0003A689201FF201040FA1D127815000322FD
:1094F0002A40D200904002000A43C0339B001A5118
:10950000C046BD4602B0B0BD00ED00E000E100E0A5
:1095100080B582B000AF0200FB1D1A70BB1D0A1C93
:109520001A70BB1D1A78FB1D1B785BB21100180066
:10953000FFF780FFFB1D1B785BB21800FFF760FF91
:10954000FB1D1B785BB21800FFF744FFC046BD4609
:1095500002B080BD80B582B000AF78600A4B1B6856
:109560000422134001D108230AE07B68002B01D1BB
:109570000E2305E0054B5B781A007B681A60002318
:109580001800BD4602B080BDC0210020F42000209C
:1095900090B583B000AF78600C0010001900FB1C80
:1095A000221C1A70BB1C021C1A707B1C0A1C1A702D
:1095B000A023DB05FA1C1178BA1C12785200114363
:1095C0007A1C1278920011431822BA1812781202EB
:1095D00011431C22BA181278120411437A68C1325E
:1095E000FF329200D150C046BD4603B090BDC04688
:1095F00080B584B002AF78607868002301930023BF
:109600000093002301220121FFF7C2FFC046BD469F
:1096100002B080BD80B584B002AF78600A00FB1C48
:109620001A70FB1C1A7878680023019300230093BA
:10963000130000220021FFF7ABFFC046BD4602B079
:1096400080BDC04680B582B000AF7860A023DA0547
:1096500001217B689940A123DB00D150C046BD4663
:1096600002B080BD80B582B000AF7860A023DB057A
:1096700001217A6891400A0002495A50C046BD460D
:1096800002B080BD0C05000080B582B000AF7860EC
:10969000A023DA05A223DB00D2587B68DA4013004E
:1096A000012213401800BD4602B080BD80B582B0D3
:1096B00000AF78600A00BB1C1A80BB1C1B887A684C
:1096C000D31800221A60C046BD4602B080BDC04615
:1096D00080B582B000AF78600A00BB1C1A80BB1C4A
:1096E0001B887A68D3181B685A1E9341DBB2180096
:1096F000BD4602B080BDC04680B582B000AF786084
:1097000039607A68C1239B003968D150C046BD4694
:1097100002B080BD80B582B000AF786039607A68F1
:10972000C2239B003968D150C046BD4602B080BDFF
:1097300080B582B000AF78607A68A023DB00012199
:10974000D150C046BD4602B080BDC04680B584B091
:1097500000AFF860B9607A603B60FA68A123DB0073
:10976000B968D150FB6806497A685A50FA68A22352
:10977000DB003968D150C046BD4604B080BDC0464C
:109780000C05000080B582B000AF78600A00FB1CB9
:109790001A70FB1C1A787B6802495A50C046BD46B5
:1097A00002B080BD1C05000080B582B000AF7860BB
:1097B0007A68A323DB00D358DBB21800BD4602B0A1
:1097C00080BDC04680B582B000AF786039603A682D
:1097D0007B6803495A50C046BD4602B080BDC046B2
:1097E0002405000080B584B000AF78600800110047
:1097F000FB1C021C1A70BB1C0A1C1A70BB1C1B78B9
:109800005A1E9341DBB2FB60FB1C1B78022B09D074
:10981000032B0CD0012B00D00EE0FB680222134377
:10982000FB6009E0FB6804221343FB6004E0FB6873
:1098300006221343FB60C0467B680349FA685A500E
:10984000C046BD4604B080BD5405000080B588B058
:1098500000AFF860B9607A60FB685B791A001300AA
:109860005B009B18DB005C4A9B187B617B691B7962
:10987000002B01D00823ABE0BB68002B05D1FB68AF
:109880005B791A01554BD318BB607B697A681A6003
:10989000BB681B7B012B05D8BB681B781800FFF742
:1098A000E1FE04E0BB681B781800FFF7CBFEA023A5
:1098B000DB05BA681278C132FF3292000121D15023
:1098C000BB685B78FF2B0BD0BB685B78FB61FB69E7
:1098D0001800FFF7C7FEFB691800FFF789FE02E0DA
:1098E00001235B42FB61BB689B78FF2B08D0BB6800
:1098F0009B78BB61BB6900211800FFF78BFE02E07B
:1099000001235B42BB61BB68DB78FF2B09D0BB68DE
:10991000DB781800FFF796FEBB68DB781800FFF7CE
:1099200067FEFB685B791900BB68D8782A4A0B0090
:109930005B005B18DB00D3180633021C1A70FB684F
:109940001B683B61BB681B781900BB69FA69386901
:10995000FFF7FCFEBB689A683B6911001800FFF72F
:1099600031FFBB68197BBB685A7B3B691800FFF766
:1099700039FFFB685B791900BB685879164A0B0000
:109980005B005B18DB00D3180733021C1A707B697D
:109990001B68002B04D03B6904211800FFF7ACFEC4
:1099A0003B691800FFF7C4FE7B691B68002B08D0D9
:1099B000FB6804229A56BB681B7919001000FFF758
:1099C000A7FD7B6900225A717B6901221A7100236D
:1099D0001800BD4608B080BDC421002040E501004C
:1099E00080B584B000AF786039607B681800FFF7FD
:1099F000DBFE03001A000D23FB181A703B689A7AED
:109A00003B685B7A9A4209D23B681B693A68927A52
:109A10009B180D22BA181278D2B21A703B689B7A42
:109A20000133DAB23B689A723B689B7A9AB20E2392
:109A3000FB1801321A803B681B7A9BB20E22BA18BF
:109A400012889A420DD23B68DA680E23FB181B88F5
:109A5000D3181A787B6811001800FFF793FE0123D2
:109A600023E03B685B7A9BB20E22BA1812889A42B6
:109A700008D23B68DA797B6811001800FFF782FE94
:109A8000012312E03B689A7A3B681B7A9A4205D31D
:109A90003B689A7A3B685B7A9A4201D2012300E0E4
:109AA00000231A1C01231340DBB21800BD4604B08A
:109AB00080BDC04680B586B000AFF860B9603B603D
:109AC000FB1D1A70FB685B791A0013005B009B1882
:109AD000DB00554A9B187B617B695B79DBB2002B0D
:109AE00001D011239BE0FB1D1B78002B06D1202306
:109AF000FB181B78002B01D1002390E07B699B7938
:109B0000FF2B0BD07B699B791800FFF7ABFDC0469C
:109B10001120FFF7B9FD0300012BF9D0FB681B688A
:109B20003B617B69BA68DA607B69FA1D12781A7248
:109B30007B693A681A617B692022BA1812785A72D6
:109B40007B6900229A727B691B68002B07D07B69B6
:109B500001225A713B6904211800FFF7DBFD8423C1
:109B60005A003B6911001800FFF7A0FDFB1D1B7890
:109B7000002B02D0BB681B7801E07B69DB793A6976
:109B800019001000FFF7FEFDFB1D1B78012B08D903
:109B9000BB6801331A783B6911001800FFF7F2FD2A
:109BA0000BE02023FB181B78012B06D97B69DA799F
:109BB0003B6911001800FFF7E5FD7B691B68002B6E
:109BC00005D03B6904211800FFF796FD26E0C0464A
:109BD00084235A003B6911001800FFF779FD030048
:109BE0001A0001235340DBB2002BF1D184235A0029
:109BF0003B6911001800FFF759FD7A693B691100B4
:109C00001800FFF7EDFE031EE1D17B699B79FF2B66
:109C100004D07B699B791800FFF714FD002318001E
:109C2000BD4606B080BDC046C421002080B582B0CC
:109C300000AF78607B689B79FF2B04D07B689B79B1
:109C40001800FFF7FFFC7B6800225A717B681B68D5
:109C500000209847C046BD4602B080BD80B582B0A6
:109C600000AF7860396084235A007B6811001800C7
:109C7000FFF71CFD3A687B6811001800FFF7B0FE83
:109C800003001A0001235340DBB2002B03D03B68D2
:109C90001800FFF7CBFFC046BD4602B080BDC046EE
:109CA00080B500AF044B054A19001000FFF7D6FF3E
:109CB000C046BD4680BDC046C421002000300040E3
:109CC00071DF7047C046180072DF7047C046180049
:109CD00079DF7047C04618007DDF7047C046180026
:109CE00065DF7047C046180080B582B000AF020043
:109CF0003960BB1D1A80BB1D1B88DAB23B681A7025
:109D00003B680133BA1D1288120A92B2D2B21A709D
:109D100002231800BD4602B080BDC04680B586B0A3
:109D200000AFF860B9607A601A00BB1C1A807B68CB
:109D30001B8812331A00BB1C1B889A4201D90C23C2
:109D400040E07B681B881A00BB689B1811221A70C0
:109D50007B681B8801339AB27B681A807B681B88FA
:109D60001A00BB689B1810221A707B681B8801338D
:109D70009AB27B681A801723FB180F221A701BE017
:109D80007B681B881A00BB689B181722BA181278C8
:109D900052B2F9688A5C1A701723FB181B785BB201
:109DA000DBB2013BDAB21723FB181A707B681B8801
:109DB00001339AB27B681A801723FB181B787F2B1C
:109DC000DED900231800BD4606B080BD80B584B042
:109DD00000AFB9607A6019000F23FB18021C1A70DB
:109DE0000C23FB180A1C1A807B681B88DA1C0C23C6
:109DF000FB181B889A4201D90C2350E07B681B8812
:109E00001A00BB689B1802221A707B681B880133FA
:109E10009AB27B681A807B681B881A00BB689B1803
:109E20001C221A707B681B8801339AB27B681A80E7
:109E30000F23FB181B78022B10D002DC012B05D05E
:109E400024E0032B12D0042B18D01FE07B681B8862
:109E50001A00BB689B1800221A7019E07B681B88E7
:109E60001A00BB689B1801221A7011E07B681B88DE
:109E70001A00BB689B1802221A7009E07B681B88D5
:109E80001A00BB689B1803221A7001E0072306E042
:109E90007B681B8801339AB27B681A800023180004
:109EA000BD4604B080BDC04680B588B000AFF86044
:109EB000B960BB1D1A80BB681B8809331A00BB1D23
:109EC0001B889A4201D90C2352E01423FB18180076
:109ED000FFF7F6FE0300FB61FB69002B01D0FB6975
:109EE00046E0BB681B881A00FB689B1808221A70A2
:109EF000BB681B8801339AB2BB681A80BB681B8899
:109F00001A00FB689B181B221A70BB681B88013360
:109F10009AB2BB681A80BB681B881A00FB68981845
:109F20001423FB1801330622190004F0F1FABB6870
:109F30001B8806339AB2BB681A801423FB181B785F
:109F4000002B07D1BB681B881A00FB689B180022F6
:109F50001A7006E0BB681B881A00FB689B18012278
:109F60001A70BB681B8801339AB2BB681A80002341
:109F70001800BD4608B080BD80B588B000AFF8605D
:109F8000B9607A601A00BB1C1A80FB681B78012B31
:109F900005D1FB685B78002B01D1072399E07B6832
:109FA0001B889A1CBB1C1B889A420ED8FB681B7826
:109FB000012B0CD17B681B881A00FB685B78D318D7
:109FC0009A1CBB1C1B889A4201D90C2381E07B6838
:109FD0001B88BA1C1288D31A9AB21C23FB18023AA7
:109FE0001A801623FB181C22BA1812881A807B6864
:109FF0001B880233BA68D3181622BA181100180049
:10A00000FFF76AFE0300BB61BB69002B01D0BB698F
:10A010005FE0FB681B78022B0CD11623FB181B8812
:10A020001C22BA1812889A4204D31F23FB18092253
:10A030001A701CE01F23FB1808221A70FB681B789B
:10A04000012B0ED1FB685B789BB21C22BA181288D8
:10A050009A4206D3FB685B789AB21623FB181A80E3
:10A0600005E01623FB181C22BA1812881A80162342
:10A07000FB181B88FE2B01D90C232AE07B681B8868
:10A080001A00BB689B181622BA181288D2B2013285
:10A09000D2B21A707B681B8801339AB27B681A802F
:10A0A0007B681B881A00BB689B181F22BA1812789D
:10A0B0001A707B681B8801339AB27B681A807B68B0
:10A0C0001A881623FB181B88D3189AB27B681A804B
:10A0D00000231800BD4608B080BDC04680B586B0DC
:10A0E00000AFF860B960BB1D1A80BB681B881A1DE1
:10A0F000BB1D1B889A4201D90C233BE01223FB189D
:10A100001800FFF7E5FD03007B617B69002B01D0A0
:10A110007B692FE0BB681B881A00FB689B18032231
:10A120001A70BB681B8801339AB2BB681A80BB687F
:10A130001B881A00FB689B1819221A70BB681B88C1
:10A1400001339AB2BB681A801223FB181A88BB68C5
:10A150001B881900FB685B1819001000FFF7C4FD8D
:10A1600003001900BB681A888BB2D3189AB2BB6877
:10A170001A8000231800BD4606B080BD80B584B0AB
:10A1800000AFB9607A6019000F23FB18021C1A7027
:10A190000C23FB180A1C1A807B681B88DA1C0C2312
:10A1A000FB181B889A4201D90C2329E07B681B8885
:10A1B0001A00BB689B1802221A707B681B88013347
:10A1C0009AB27B681A807B681B881A00BB689B1850
:10A1D00001221A707B681B8801339AB27B681A804F
:10A1E0007B681B881A00BB689B180F22BA1812786C
:10A1F0001A707B681B8801339AB27B681A8000232F
:10A200001800BD4604B080BD80B584B000AFB96011
:10A210007A6019000F23FB18021C1A700C23FB181C
:10A220000A1C1A807B681B88DA1C0C23FB181B880D
:10A230009A4201D90C2329E07B681B881A00BB686D
:10A240009B1802221A707B681B8801339AB27B68C4
:10A250001A807B681B881A00BB689B1811221A7031
:10A260007B681B8801339AB27B681A807B681B88E5
:10A270001A00BB689B180F22BA1812781A707B68F4
:10A280001B8801339AB27B681A8000231800BD46F0
:10A2900004B080BD80B584B000AFB9607A601900A9
:10A2A0000F23FB18021C1A700C23FB180A1C1A80BF
:10A2B0007B681B88DA1C0C23FB181B889A4201D987
:10A2C0000C2329E07B681B881A00BB689B180222BC
:10A2D0001A707B681B8801339AB27B681A807B688E
:10A2E0001B881A00BB689B180A221A707B681B889F
:10A2F00001339AB27B681A807B681B881A00BB689E
:10A300009B180F22BA1812781A707B681B880133C9
:10A310009AB27B681A8000231800BD4604B080BD45
:10A3200080B58AB000AFF860080011007B600B2395
:10A33000FB18021C1A700A23FB180A1C1A7023232C
:10A34000FB1800221A702023FB183A6B12881A801F
:10A3500000237B6281E0FB685A687B6A9B00D3180C
:10A360001022BA181000190004231A0004F0D0F8C3
:10A370001723F9181023FB1800221800FFF7B0FC70
:10A380000300FB61FB69002B01D0FB698EE0172302
:10A39000FB181B780A22BA1812789A425AD1232342
:10A3A000FB181B78002B01D0002200E002221B23A7
:10A3B000FB181A703B6B1B881A001723FB181B78BD
:10A3C000D2181B23FB181B78D2183423FB181B88C8
:10A3D0009A4201DD0C2369E02323FB181B7801223C
:10A3E0005340DBB2002B18D03B6B1B8801339AB271
:10A3F0003B6B1A803B6B1B881A007B689B180B22F7
:10A40000BA1812781A703B6B1B8801339AB23B6BF7
:10A410001A802323FB1801221A703B6B1B881A0039
:10A420007B689A181723F9181023FB181800FFF7F8
:10A4300057FC0300FB61FB69002B01D0FB6935E091
:10A440003B6B1A881723FB181B789BB2D3189AB260
:10A450003B6B1A807B6A01337B62FB681B881A00A6
:10A460007B6A9A4200DD76E72323FB181B78002BDA
:10A470001BD03B6B1A882023FB181B88D31A9AB277
:10A480001823FB18013A1A801823FB181B88FF2B8E
:10A4900001D90C230AE02023FB181B887A68D31803
:10A4A0001822BA181288D2B21A7000231800BD46BA
:10A4B0000AB080BD80B588B002AFF8600800110016
:10A4C0007B600B23FB18021C1A700A23FB180A1C62
:10A4D0001A707A680B23FB181978F8682423FB1884
:10A4E0001B8801933B6A009313000222FFF718FFB9
:10A4F00003007B617B69002B01D07B6916E07A68E1
:10A500000A23FB181978F8682423FB181B88019389
:10A510003B6A009313001022FFF702FF03007B61E8
:10A520007B69002B01D07B6900E000231800BD4649
:10A5300006B080BD80B582B000AF78607B681B88B4
:10A54000052B0AD97B681A88C8231B019A4206D9B1
:10A550007B681B88164A934201D0072323E07B685F
:10A560005B88052B0AD97B685A88C8231B019A424D
:10A5700006D97B685B880E4A934201D0072312E01C
:10A580007B681B880A4A93420CD07B685B88084A28
:10A59000934207D07B681A887B685B889A4201D90E
:10A5A000072300E000231800BD4602B080BDC0466E
:10A5B000FFFF000080B586B000AFF860B9607A6038
:10A5C0001A00BB1C1A807B681B889A1DBB1C1B8849
:10A5D0009A4201D90C234DE0FB681800FFF7AAFF4F
:10A5E00003007B617B69002B01D07B6942E07B68C3
:10A5F0001B881A00BB689B1805221A707B681B8891
:10A6000001339AB27B681A807B681B881A00BB688A
:10A610009B1812221A707B681B8801339AB27B68E0
:10A620001A80FB681A887B681B881900BB685B1856
:10A6300019001000FFF758FB030019007B681A8807
:10A640008BB2D3189AB27B681A80FB685A887B68F1
:10A650001B881900BB685B1819001000FFF744FB4A
:10A66000030019007B681A888BB2D3189AB27B68F2
:10A670001A8000231800BD4606B080BD80B586B0A4
:10A6800000AFF860B9607A601A00BB1C1A80FB68E2
:10A690009B8802337B617B681B881A007B69D31817
:10A6A0009A1CBB1C1B889A4201D90C2354E07B697D
:10A6B000FE2B01D90C234FE07B681B881A00BB6876
:10A6C0009B187A69D2B20132D2B21A707B681B88A9
:10A6D00001339AB27B681A807B681B881A00BB68BA
:10A6E0009B18FF221A707B681B8801339AB27B6823
:10A6F0001A80FB681A887B681B881900BB685B1886
:10A7000019001000FFF7F0FA030019007B681A889F
:10A710008BB2D3189AB27B681A80FB689B88002B97
:10A7200019D0FB689B68002B01D1072314E07B68DC
:10A730001B881A00BB689818FB689968FB689B889F
:10A740001A0003F0E5FE7B681A88FB689B88D31823
:10A750009AB27B681A8000231800BD4606B080BDFF
:10A7600080B588B000AFF860B9607A601A00BB1C91
:10A770001A80FB689B6A002B01D1072377E01F2317
:10A78000FB1800221A7069E0FB68996A1F23FB1806
:10A790001A7813005B009B189B00CB18BB61BB6948
:10A7A0009B8802337B617B69FE2B01D90C235EE021
:10A7B0007B681B881A00BB689B187A69D2B2013289
:10A7C000D2B21A707B681B8801339AB27B681A80F8
:10A7D0007B681B881A00BB689B1816221A707B685E
:10A7E0001B8801339AB27B681A80BB691A887B6820
:10A7F0001B881900BB685B1819001000FFF774FA7A
:10A80000030019007B681A888BB2D3189AB27B6850
:10A810001A80BB699B88002B19D0BB699B68002BF1
:10A8200001D1072323E07B681B881A00BB689818B6
:10A83000BB699968BB699B881A0003F069FE7B6855
:10A840001A88BB699B88D3189AB27B681A801F2329
:10A85000FB181A781F23FB1801321A70FB682C2290
:10A860009B5C1F22BA1812789A428DD300231800DD
:10A87000BD4608B080BDC04680B588B002AFF86064
:10A88000B9607A6000237B611223FB187A68128812
:10A890001A807B6800221A80FB685B6B002B10D04B
:10A8A000FB685B6B18781223FB181B887A68B96801
:10A8B000FFF7AAFC03007B617B69002B01D07B6959
:10A8C00019E1FB681B6B002B0FD0FB68186B122380
:10A8D000FB181B887A68B968FFF720FA03007B61D0
:10A8E0007B69002B01D07B6905E1FB682E229B5C14
:10A8F000002B10D0FB682E22985C1223FB181B88BB
:10A900007A68B968FFF762FA03007B617B69002B04
:10A9100001D07B69EFE0FB682D229B5C002B0ED001
:10A920001223FB181A887968BB681800FFF7BCFA75
:10A9300003007B617B69002B01D07B69DBE0FB6856
:10A940009B78002B0ED01223FB181A887968BB68FD
:10A950001800FFF7C3FB03007B617B69002B01D06C
:10A960007B69C8E0FB68DB78002B10D0FB68DB78E4
:10A9700058B21223FB181B887A68B968FFF7FEFBF0
:10A9800003007B617B69002B01D07B69B3E0FB682E
:10A990005B68002B11D0FB685B68002018561223FF
:10A9A000FB181B887A68B968FFF774FC03007B61A9
:10A9B0007B69002B01D07B699DE0FB681B89002B24
:10A9C00015D0FB6808331800BA681223FB181B88DF
:10A9D00001937B680093130006220221FFF76AFDB2
:10A9E00003007B617B69002B01D07B6983E0FB68FE
:10A9F0001B8A002B15D0FB6810331800BA6812238D
:10AA0000FB181B8801937B68009313000722032126
:10AA1000FFF750FD03007B617B69002B01D07B6950
:10AA200069E0FB681B8B002B15D0FB6818331800FE
:10AA3000BA681223FB181B8801937B6800931300EC
:10AA400015221421FFF736FD03007B617B69002B83
:10AA500001D07B694FE0FB681B6A002B0FD0FB68BD
:10AA6000186A1223FB181B887A68B968FFF7A2FDE1
:10AA700003007B617B69002B01D07B693BE0FB68B5
:10AA80005B6A002B0FD0FB68586A1223FB181B88E7
:10AA90007A68B968FFF7F2FD03007B617B69002BE0
:10AAA00001D07B6927E0FB682C229B5C002B0ED039
:10AAB0001223FB181B887A68B968F868FFF750FE04
:10AAC00003007B617B69002B01D07B6913E0FB688D
:10AAD0001B78002B0ED01223FB181B887A68B968EC
:10AAE000F868FFF749FA03007B617B69002B01D00E
:10AAF0007B6900E07B691800BD4606B080BDC0469A
:10AB000080B582B000AF78607B68DB781A000423E0
:10AB1000134001D1072300E000231800BD4602B016
:10AB200080BDC04680B582B000AF78607B68DB78BE
:10AB3000002B01D0072300E000231800BD4602B01F
:10AB400080BDC04680B596B000AF786039604A23BA
:10AB5000FB181F221A804823FB181F221A807B68CB
:10AB6000002B1DD07B681800FFF7CAFF0300FB64B1
:10AB7000FB6C002B01D0FB6C4CE04A23FA18282315
:10AB8000F9187B681800FFF777FE0300FB64FB6C85
:10AB9000002B01D0FB6C3DE02823FB187B6505E012
:10ABA00000237B654A23FB1800221A803B68002B98
:10ABB0001DD03B681800FFF7B5FF0300FB64FB6C7A
:10ABC000002B01D0FB6C25E04823FA180823F91864
:10ABD0003B681800FFF750FE0300FB64FB6C002B82
:10ABE00001D0FB6C16E00823FB183B6505E0002351
:10ABF0003B654823FB1800221A804A23FB181B8858
:10AC0000D9B24823FB181B88DBB23A6D786DFFF789
:10AC10005BF803001800BD4616B080BD75DF7047B5
:10AC2000C046180076DF7047C04618007ADF7047CC
:10AC3000C04618007BDF7047C046180080B582B060
:10AC400000AF78607B681B781AB27B6801331B7891
:10AC50001B021BB213431BB29BB21800BD4602B0CD
:10AC600080BDC04690B585B000AF78600E23FC185B
:10AC70007B681800FFF7E2FF030023800E23FB1818
:10AC80001B88012213405A1E9341DBB21800BD46B7
:10AC900005B090BD80B582B000AF78607B685A88FF
:10ACA000084B1B889A4207D37B685A88054B5B8800
:10ACB0009A4201D8012300E000231800BD4602B0EB
:10ACC00080BDC046F821002080B586B000AF786016
:10ACD000294B1B88294A93424AD0294B1B780133C0
:10ACE000DAB2274B1A70274B1A7B254B1B789A42F6
:10ACF00015D3214B1B88244A11001800FFF78EFF43
:10AD000003007B617B69002B32D01E4B9B69002BBB
:10AD10002ED01C4B9B697A691000984728E0184B8D
:10AD200000221A70174B1B7C002B13D0124B1B8870
:10AD30003B211800FFF776FF03003B613B69002BC6
:10AD400008D0104B9B69002B04D00E4B9B693A69CD
:10AD5000100098470B4B5B69002B09D00C23FB18A4
:10AD600000221A70074B5B690C22BA181000984732
:10AD7000C046BD4606B080BD02220020FFFF000095
:10AD800000220020DC210020F821002090B585B0B1
:10AD900000AF78601F4B7A6813CA13C313CA13C37A
:10ADA00012681A601C4B00221A707B681B68002B0B
:10ADB00013D07B681B68194A1000190008231A0079
:10ADC00003F0A6FB154B1800FFF730FF0300FB60F4
:10ADD000FB68002B0CD0FB6818E0104B1800FFF745
:10ADE00029FF0300FB60FB68002B01D0FB680DE02E
:10ADF0000B4B012252421A800A4B00221A700A4A57
:10AE00000A4B00211800FEF773F903001800BD4635
:10AE100005B090BDDC2100202C220020F82100206C
:10AE20000222002000220020C9AC010050E50100F0
:10AE300080B500AF034B1800FEF7E4F903001800DB
:10AE4000BD4680BD0C22002080B584B000AF274BEA
:10AE50001800FFF71FFF03001A0001235340DBB265
:10AE6000002B30D0224B1B78002B0CD0214B5B6980
:10AE7000002B34D03B1D00221A701E4B5B693A1D1B
:10AE8000100098472BE01C4B1B78002B03D1194B6B
:10AE90005B68FB6002E0174B9B68FB60174BF9682F
:10AEA00000221800FEF774F90300BB60BB68002B9A
:10AEB00015D0104B9B69002B11D00E4B9B69BA68C3
:10AEC000100098470BE00B4B5B69002B07D03B0051
:10AED00001221A70074B5B693A0010009847044B37
:10AEE00000221A70C046BD4604B080BD0422002076
:10AEF0002C220020DC210020002200200C22002037
:10AF000080B582B000AF78607B689A880B4B1A805E
:10AF10000B497B68162208009B180822190003F0D1
:10AF2000F7FA084B00221A70074BDB89002B01D17E
:10AF3000FFF78AFFC046BD4602B080BD0222002056
:10AF40000422002000220020DC21002080B584B0F3
:10AF500000AF78600E4B012252421A800D4B002246
:10AF60001A700D4B1800FEF74DF90300FB60FB68EB
:10AF7000002B08D0094B9B69002B04D0074B9B6921
:10AF8000FA6810009847C046BD4604B080BDC04670
:10AF900002220020002200200C220020DC210020C0
:10AFA00080B584B000AF78607B680633FB60FB68D7
:10AFB0001A88144BDB899A421FD1FB681B8B022B2A
:10AFC0001BD1FB681A331800FFF74CFE031E02D09A
:10AFD000FFF73AFF11E00C4B1800FEF713F90300DE
:10AFE000BB60BB68002B08D0064B9B69002B04D0CC
:10AFF000044B9B69BA6810009847C046BD4604B030
:10B0000080BDC046DC2100200C22002080B582B02B
:10B0100000AF786007497B68062208009B18082269
:10B02000190003F075FAFFF70FFFC046BD4602B0E6
:10B0300080BDC0460422002080B582B000AF786099
:10B040007B681B88112B0DD002DC102B05D018E07B
:10B05000122B11D0502B0AD013E07B681800FFF799
:10B060004FFF0EE07B681800FFF770FF09E07B6878
:10B070001800FFF795FF04E07B681800FFF7C6FF94
:10B08000C046C046BD4602B080BDC04673DF7047B3
:10B09000C046180080B582B000AF78607B681B792D
:10B0A000002B03D17B681B7B002B01D0012300E028
:10B0B00000231800BD4602B080BDC04680B500AF79
:10B0C000044B072200211800FDF7A2F8C046BD4638
:10B0D00080BDC0463022002080B584B000AF7860CB
:10B0E0000023FB600AE07A68FB68D3181B78002B0A
:10B0F00001D0012306E0FB680133FB60FB68052BF0
:10B10000F1D900231800BD4604B080BD90B589B0C8
:10B1100000AFF860B9607A603B60FB68002B02D03A
:10B120007B68002B01D10E23CDE0694B00221A7001
:10B13000684B3A681A60684B3A6B1A60674B7A68DA
:10B1400013CA13C313CA13C313CA13C3FFF7B6FF3B
:10B15000634B644A1A60624B634A9A60634B3822BD
:10B1600000211800FDF754F8FB681A785F4B1A703D
:10B17000FB689A785D4B9A70FB68DA785B4BDA7003
:10B18000FB685A78594B5A70584BFA681033103292
:10B1900003CA03C3554BFA680833083203CA03C312
:10B1A000524BFA681833183203CA03C3FB685B6A50
:10B1B000002B29D04D4B4E4A5A624D4B4D4A9A6056
:10B1C0004A4B5A6AFB685B6A1B881380474B5A6A72
:10B1D000FB685B6A9B8893800023FB610DE0FB6842
:10B1E0005B6A9A68FB69D3181978424AFB69D318DD
:10B1F0000A1C1A70FB690133FB613C4B5B6A9B883C
:10B200001A00FB699A42EAD8FB689B6A002B33D08C
:10B21000394B3A4A9A60354B374A9A62334B9B6AAC
:10B22000364A9A60314B9A6AFB689B6A9B88938086
:10B230002E4B9A6AFB689B6A1B8813800023BB61B4
:10B240000DE0FB689B6A9A68BB69D31819782B4A92
:10B25000BB69D3180A1C1A70BB690133BB61234B4D
:10B260009B6A9B881A00BB699A42EAD8FB682C2229
:10B27000995C1E4B2C229954FB681B6A002B0ED044
:10B280001A4B1F4A1A62194B1A6AFB681B6A5B88C1
:10B290005380164B1A6AFB681B6A1B881380FB6875
:10B2A0005B68002B06D0114B164A5A60FB685A683F
:10B2B0000E4B5A60BA680D4B11001800FFF742FCA4
:10B2C00003007B617B691800BD4609B090BDC04694
:10B2D0007C2200207422002078220020802200207E
:10B2E000A4220020B4220020D422002038220020F2
:10B2F000F8220020042300202423002030230020F3
:10B30000502300205423002080B58AB000AF0200F3
:10B31000FB1D1A70C54BFA1D12781A700023BB6012
:10B320000823FB181800FEF715F903007B627B6AFF
:10B33000082B02D10023BB6004E07B6A002B01D004
:10B340007B6A96E1BB68002B04D0B94B01221A70CE
:10B3500000238EE1FFF7B2FEB64B5B78002B03D0E3
:10B36000B24B1B78012B07D0B24B9B78002B12D02D
:10B37000AE4B1B78022B0ED1AF4B1B68002B07D0B6
:10B38000AE4B01221A70AC4B1B680820984702E0B4
:10B39000AA4B00221A70A54B1B78012B14D1A54B88
:10B3A0005B7801225340DBB2002B0AD1A44B18007A
:10B3B000FFF792FE03001A0001235340DBB2002B7B
:10B3C00002D09A4B02221A70984B1B78022B14D190
:10B3D000984B9B7801225340DBB2002B0AD1984B4B
:10B3E0001800FFF779FE03001A0001235340DBB277
:10B3F000002B02D08D4B03221A708E4B1B7B012237
:10B400005340DBB2002B06D0884B1B78032B02D1B4
:10B41000864B04221A70874B1B7E01225340DBB2FD
:10B42000002B09D0814B1B78042B05D17F4B0022C8
:10B430001A70844B00221A707F4B1B68002B1AD0A5
:10B440007A4B1B78032B03D0784B1B78042B12D13B
:10B45000784B1B78002B0ED07B4B1B78012253407E
:10B46000DBB2002B07D0794B01221A70724B1B689C
:10B470000720984702E0754B00221A700C23FB1836
:10B48000182200211800FCF7C3FE0C23FB18002231
:10B490001A700C23FB1800225A600C23FB180022A0
:10B4A0001A720C23FB180022DA60604B1B78022B07
:10B4B0001CD002DC012B05D0A8E0032B2ED0042BDE
:10B4C00068D0A3E00C23FB18614A5A600C23FB18D8
:10B4D00001221A700C23FB1800225A820C23FB183D
:10B4E00000221A82574B01221A708FE00C23FB189E
:10B4F000574A5A600C23FB1801221A704D4B9B6867
:10B500009AB20C23FB185A824A4B5B689AB20C23FE
:10B51000FB181A824B4B02221A7077E0454B5B698D
:10B520009AB20C23FB185A82424B1B699AB20C2325
:10B53000FB181A82474B1800FFF7ACFD031E25D0FD
:10B540003C4B1B78002B21D03F4B1B7801225340F2
:10B55000DBB2002B1AD00C23FB1802221A720C2328
:10B56000FB183C4ADA603C4B0422DA703A4B00216B
:10B570001800FFF7E7FA03007B627B6A002B01D01B
:10B580007B6A76E02F4B05221A703FE02D4B032299
:10B590001A703BE0274BDB699AB20C23FB181A8226
:10B5A000244B1B6A9AB20C23FB185A82294B1800B1
:10B5B000FFF770FD031E25D01E4B1B78002B21D0FA
:10B5C000214B1B7801225340DBB2002B1AD00C23F5
:10B5D000FB1802221A720C23FB181E4ADA601E4B5B
:10B5E0000422DA701C4B00211800FFF7ABFA0300AD
:10B5F0007B627B6A002B01D07B6A3AE0114B06220A
:10B600001A7002E00F4B04221A70C046074B1B78D9
:10B61000002B23D00C23FB181800FFF737FD030085
:10B620007B627B6A002B19D07B6A22E07C2200209F
:10B630002D2200208022002074220020F6220020EB
:10B640003122002070220020F4220020F522002068
:10B6500030220020A422002038220020074B1B6843
:10B66000002B05D0054B1B68054A1278100098473F
:10B6700000231800BD460AB080BDC04674220020D9
:10B680007022002080B586B000AF78607B681B8890
:10B69000112B09D0192B25D0102B00D086E07B6808
:10B6A0009A88444B1A8081E0434B00221A707B68D1
:10B6B0009A88404B1B889A4200D074E00120FFF723
:10B6C00023FE03007B617B69002B00D16BE03B4BC9
:10B6D0001B68002B00D166E0384B1B687A691000AC
:10B6E000984760E07B689B79002B00D05DE0344B8D
:10B6F0001B78022B1AD002DC012B05D052E0032B61
:10B7000026D0042B39D04DE00220FFF7FDFD0300C9
:10B710003B613B69002B3ED0284B1B68002B3AD085
:10B72000264B1B683A691000984734E00320FFF766
:10B73000EBFD0300FB60FB68002B2ED01F4B1B684A
:10B74000002B2AD01D4B1B68FA681000984724E094
:10B750001C4B03221A700420FFF7D6FD0300BB60C8
:10B76000BB68002B1BD0154B1B68002B17D0134B4D
:10B770001B68BA681000984711E0124B00221A703B
:10B78000114B1B68002B0CD00F4B1B680D4A127815
:10B790001000984705E0C04607E0C04605E0C046F7
:10B7A00003E0C04601E0C04600E0C046C046BD46DA
:10B7B00006B080BD60200020F42200207822002006
:10B7C0007C220020702200207422002080B500AF6F
:10B7D00000F01CF8031E06D0094B0A4A1A600A4BF7
:10B7E000802212021A6000F051F8031E05D0802357
:10B7F000DA05C123DB000121D150C046BD4680BD22
:10B8000004050040DFFF07C0186C004080B500AFA2
:10B810001A4B1B68FF221340012B2AD1184B1B68BF
:10B820000F22134025D1174B1B68F022134006D17D
:10B83000154B1B68F022134001D101231AE0114B74
:10B840001B68F0221340102B06D10F4B1B68F0220F
:10B85000134001D101230DE00A4B1B68F022134075
:10B86000302B06D1084B1B68F022134001D1012375
:10B8700000E000231800BD4680BDC046E00F00F088
:10B88000E40F00F0E80F00F0EC0F00F080B500AF1F
:10B890000D4B1B68FF221340012B11D10B4B1B6872
:10B8A0000F2213400CD10A4B1B68F0221340402B8F
:10B8B00006D1084B1B68F022134001D1012300E0A0
:10B8C00000231800BD4680BDE00F00F0E40F00F03B
:10B8D000E80F00F0EC0F00F02EDF7047C0461800B4
:10B8E00051DF7047C046180010DF7047C04618008F
:10B8F00080B582B000AF78607B68032213405A4263
:10B900005341DBB21800BD4602B080BD61DF704715
:10B91000C046180080B584B000AFF8607A600A2392
:10B92000FB180A1C1A807A680A23FB181B8811006E
:10B93000180001F037F8C046BD4604B080BDC046CF
:10B9400080B584B000AF3D4B1B78DBB20122534081
:10B95000DBB2002B00D06AE0394B1A680F23FB18CA
:10B9600051424A411A70374B1A680E23FB18514254
:10B970004A411A700F23FB181B7801225340DBB297
:10B98000002B1CD03B1D1800FFF7AAFF0300BB6073
:10B99000BB68052B04D10F23FB1801221A700EE09F
:10B9A000BB68002B06D0BB68002200211800FDF701
:10B9B00073FC04E0224B1B687A68100098470E2342
:10B9C000FB181B7801225340DBB2002B24D01E4B06
:10B9D0001A88BB1C1A801D4B1B68BA1C110018006A
:10B9E000FFF794FF0300BB60BB68052B04D10E2357
:10B9F000FB1801221A700FE0BB68002B06D0BB6851
:10BA0000002200211800FDF747FC05E00D4B1A68E5
:10BA10000E4B1B68180090470F23FB181B78002B58
:10BA2000A8D00E23FB181B78002B02D1A2E7C0463A
:10BA300000E0C046BD4604B080BDC0465C23002087
:10BA40006C23002068230020642300206023002052
:10BA500080B586B000AFF860B9603B60BB1D1A804E
:10BA6000BB68002B01D107232AE0BB681800FFF751
:10BA70003FFF03001A0001235340DBB2002B01D02B
:10BA800007231DE0104BBA681A60104BBA1D1288CC
:10BA90001A800F4B3A681A600E4AFB6811001800B2
:10BAA000FFF722FF03007B617B69002B01D07B69DC
:10BAB00006E0094B01221A701620FFF70DFF030064
:10BAC0001800BD4606B080BD60230020642300201E
:10BAD0005823002015B901005C23002080B582B0F6
:10BAE00000AF78607B68002B01D10E2303E0044B8C
:10BAF0007A681A6000231800BD4602B080BDC046B7
:10BB00006823002080B582B000AF0D4B1B68002B6E
:10BB100010D00B4B1B68984703007B607B683B6031
:10BB20003B68002B08D03B68002200211800FDF77D
:10BB3000B3FB01E0FFF704FFC046BD4602B080BD85
:10BB40005823002080B582B000AF0200FB1D1A70A0
:10BB5000064BFA1D127811001F220A400121914064
:10BB60000A001A60C046BD4602B080BD00E100E098
:10BB7000B0B582B000AF02003960FB1D1A70FB1D2A
:10BB80001B787F2B32D92F4CFB1D1B781A000F23FB
:10BB90001340083B99082B4AFB1D1B7818000F2304
:10BBA0000340083B9B0806339B00D31804331B68F3
:10BBB000FA1D1278100003220240D200FF209040AC
:10BBC0000200D2431A403B689B01FF201840FB1D36
:10BBD0001B781D0003232B40DB00984003001A4311
:10BBE0008B1D9B00E31804331A6027E0164CFB1DE5
:10BBF0001B785BB29B081449FA1D127852B2920866
:10BC0000C03292005258F91D097808000321014002
:10BC1000C900FF2088400100C94311403A689201E1
:10BC2000FF201040FA1D1278150003222A40D2008E
:10BC3000904002000A43C0339B001A51C046BD46E3
:10BC400002B0B0BD00ED00E000E100E080B500AF63
:10BC5000BFF34F8F024B034ADA60BFF34F8FFEE70B
:10BC600000ED00E00400FA0590B583B000AF786005
:10BC70000C0010001900FB1C221C1A70BB1C021CBB
:10BC80001A707B1C0A1C1A70A023DB05FA1C1178A1
:10BC9000BA1C1278520011437A1C12789200114398
:10BCA0001822BA181278120211431C22BA181278FC
:10BCB000120411437A68C132FF329200D150C0465B
:10BCC000BD4603B090BDC04680B584B002AF786079
:10BCD00078680023019300230093002301220121AF
:10BCE000FFF7C2FFC046BD4602B080BD80B582B03E
:10BCF00000AF7860A023DA0501217B689940A12379
:10BD0000DB00D150C046BD4602B080BD80B582B0D8
:10BD100000AF7860A023DB0501217A6891400A001A
:10BD200002495A50C046BD4602B080BD0C05000015
:10BD300080B582B000AF7860A023DA05A223DB00D3
:10BD4000D2587B68DA401300012213401800BD4628
:10BD500002B080BD80B582B000AF78607B681B7890
:10BD60001AB27B6801331B781B021BB213431BB250
:10BD70009BB21800BD4602B080BDC04680B582B0FF
:10BD800000AF0200FB1D1A700F49FB1D1B781A0241
:10BD90000D480E4BC3580E48034013430B4A8B50BB
:10BDA000FB1D1B78002B05D0074AA023DB000121D7
:10BDB000D15004E0044AA023DB000021D150C0464A
:10BDC000BD4602B080BDC0460070004004050000C2
:10BDD000FF00FFFF80B500AF034AA123DB00D3586B
:10BDE0001800BD4680BDC0460070004080B582B0DE
:10BDF00000AF78600449C1239B007A68CA50C046EE
:10BE0000BD4602B080BDC0460070004080B500AFA6
:10BE1000024B01221A60C046BD4680BD0070004042
:10BE200080B500AF024B01225A60C046BD4680BDBE
:10BE30000070004080B500AF034A80235B00002102
:10BE4000D150C046BD4680BD0070004070DF7047D5
:10BE5000C046180071DF7047C046180074DF704795
:10BE6000C046180076DF7047C04618007ADF70477A
:10BE7000C04618007CDF7047C04618007FDF70475F
:10BE8000C0461800A0DF7047C0461800A2DF704708
:10BE9000C0461800A6DF7047C0461800A9DF7047EB
:10BEA000C046180060DF7047C046180090B585B0E6
:10BEB00000AF78600E23FC187B681800FFF74AFF7C
:10BEC000030023800E23FB181B88012213405A1EF7
:10BED0009341DBB21800BD4605B090BD80B584B07B
:10BEE00000AF0200FB1D1A700F23FB1800221A700E
:10BEF000FB1D1B780122134008D00F23FB180F22D3
:10BF0000BA181278802149420A431A70FB1D1B7827
:10BF10000222134007D00F23FB180F22BA18127801
:10BF200040210A431A70FB1D1B780422134007D0DE
:10BF30000F23FB180F22BA18127820210A431A7017
:10BF4000FB1D1B780822134007D00F23FB180F227C
:10BF5000BA18127810210A431A70FB1D1B781022A0
:10BF6000134007D00F23FB180F22BA1812780821AC
:10BF70000A431A70FB1D1B782022134007D00F23A1
:10BF8000FB180F22BA18127804210A431A70FB1DFD
:10BF90001B784022134007D00F23FB180F22BA183A
:10BFA000127802210A431A70FB1D1B785BB2002B2A
:10BFB00007DA0F23FB180F22BA18127801210A435F
:10BFC0001A700F23FB181B781800BD4604B080BD03
:10BFD00090B585B000AF78600A00FB1C1A700F2383
:10BFE000FB1800221A7016E00F23FB181B787A68E2
:10BFF000D4180F23FB181B787A68D3181B78180005
:10C00000FFF76CFF030023700F23FB181A780F2330
:10C01000FB1801321A700F23FA18FB1C12781B78D8
:10C020009A42E1D3C046BD4605B090BD80B586B00A
:10C0300000AF0200BB1D1A800E23FB18BA1D128828
:10C040001A801723FB1800221A7000233B610E236D
:10C05000FB1802211800FFF7BBFF0E23FB181B88FB
:10C060005B0B9AB21723FB181A700E23FB181B8860
:10C07000DB04DB0C3B611723FB181B783A699A4001
:10C0800013001800BD4606B080BDC04680B582B022
:10C0900000AFFB1D00221A700CE0FB1D1B78FA1D7F
:10C0A000127808498956084AD154FB1D1A78FB1D9D
:10C0B00001321A70FB1D1B78032BEED9C046BD461A
:10C0C00002B080BD742000207020002080B582B0B6
:10C0D00000AF7860034B01221A70C046BD4602B023
:10C0E00080BDC046AF23002080B586B000AF0023DE
:10C0F0007B613B00180010231A000021FCF788F830
:10C100003B0001221A713B00FF225A713B00802242
:10C1100052059A603B001022DA703B000B221A7025
:10C120003B000F225A703B000C229A7039000B4BD7
:10C1300000221800FDF78AFB03007B617B693B61ED
:10C140003B69002B05D03B69002200211800FDF758
:10C15000A3F8C046BD4606B080BDC04654E5010008
:10C1600090B589B002AFF860B9607A601A00BB1C64
:10C170001A80BB1C1B88DAB2BB1C1B88DBB27C6834
:10C18000B968F86800932300FDF794FC03007B6115
:10C190007B693B613B69002B05D03B690022002194
:10C1A0001800FDF779F8C046BD4607B090BDC046FF
:10C1B00080B584B000AF0200FB1D1A70FB1DFA1D94
:10C1C0001278802149420A431A700E23FB1802227A
:10C1D0001A80094BFA1D12781A700E23FB181B885F
:10C1E000064A05490648FFF7BBFF044B5B78180079
:10C1F000BD4604B080BDC0467C23002094230020AF
:10C2000054E5010080B584B000AF39601100FB1D1A
:10C21000021C1A70BB1D0A1C1A70FB1DFA1D127835
:10C22000402149420A431A70BB1D1B789AB20E2363
:10C23000FB1801321A80374BFA1D12781A700E2340
:10C24000FB181B88344A33493448FFF789FF324BC7
:10C250005A783B681A70304B5B791A062E4B1B7963
:10C260001B041A432C4BDB781B0213432A4A927897
:10C2700013431A003B685A60274B5B7A1A06264B19
:10C280001B7A1B041A43244BDB791B021343224AFB
:10C29000927913431A003B689A601F4B9A7A3B6865
:10C2A0001A731D4BDA7A3B685A731B4B1A7B3B6837
:10C2B0009A73194B9B7B1B021AB2174B5B7B1BB209
:10C2C00013431BB29AB23B681A82134B1B7C1B02AE
:10C2D0001AB2114BDB7B1BB213431BB29AB23B6801
:10C2E0005A820D4B5A7C3B681A750B4B9A7C3B6803
:10C2F0005A75094BDA7C3B689A75074B1B7D5AB21D
:10C300003B68DA75044B5A7D3B681A76C046BD46D9
:10C3100004B080BD7C2300209423002054E501005C
:10C3200080B584B000AF0200FB1D1A700E23FB180D
:10C3300002221A80FB1DFA1D1278402149420A434D
:10C340001A700A4BFA1D12781A70084B00225A70A4
:10C350000E23FB181B88064A04490648FFF700FF16
:10C36000034B5B781800BD4604B080BD7C230020E1
:10C370009423002054E5010080B584B000AF020092
:10C38000FB1D1A700E23FB1801221A80084BFA1DA0
:10C3900012781A700E23FB181B88064A04490648B7
:10C3A000FFF7DEFE034B1B781800BD4604B080BDCE
:10C3B0007C2300209423002054E5010080B584B044
:10C3C00000AF0200FB1D1A70BB1D0A1C1A700E2361
:10C3D000FB1802221A800B4BFA1D12781A70094BB7
:10C3E000BA1D12785A700E23FB181B88064A05499D
:10C3F0000648FFF7B5FE044B1B781800BD4604B095
:10C4000080BDC0467C2300209423002054E5010019
:10C4100080B500AF3020FFF7AFFFC046BD4680BDFE
:10C4200080B582B000AF0200FB1D1A70BB1D0A1C54
:10C430001A703620FFF7A0FF3520FFF771FF0300C9
:10C440001A001F231340012BF3D1FB1D1B78190089
:10C450000A20FFF7B3FFBB1D1B7819000C20FFF764
:10C46000ADFF3420FFF788FFC0463520FFF758FFA7
:10C4700003001A001F2313400D2BF6D1C046BD4602
:10C4800002B080BD80B500AFFFF7C2FF00213E20A3
:10C49000FFF794FF01210120FFF790FF12210620F2
:10C4A000FFF78CFF04210720FFF788FF05210820F4
:10C4B000FFF784FF00210920FFF780FF00210A20F9
:10C4C000FFF77CFF0A210B20FFF778FF00210C20EB
:10C4D000FFF774FF5D210D20FFF770FF44210E2050
:10C4E000FFF76CFFEB210F20FFF768FFB62121203B
:10C4F000FFF764FF10212220FFF760FF5A21102070
:10C50000FFF75CFFF8211120FFF758FF732112207D
:10C51000FFF754FF03211320FFF750FF3B211420A6
:10C52000FFF74CFF40211520FFF748FF0721162099
:10C53000FFF744FF30211720FFF740FF1821182094
:10C54000FFF73CFF0A211920FFF738FFA92123201C
:10C55000FFF734FF0A212420FFF730FF00212520B8
:10C56000FFF72CFF11212620FFF728FF03211B20B6
:10C57000FFF724FF00211C20FFF720FF91211D2041
:10C58000FFF71CFF6C211A20FFF718FFC046BD46BD
:10C5900080BDC04680B500AF81212C20FFF70EFF83
:10C5A00035212D20FFF70AFF0B212E20FFF706FF74
:10C5B000C046BD4680BDC04680B500AF3620FFF7FF
:10C5C000DBFE0A20FCF7E2FE3520FFF7A9FE0300A0
:10C5D0001A001F231340012BF0D13920FFF7CCFEA6
:10C5E000C046BD4680BDC046F0B58BB000AF786197
:10C5F00039610F23FB181A701F2308229446BC448C
:10C60000634400221A701E2308229446BC446344EB
:10C6100000221A700F23FB181B78834AD05C0F236B
:10C62000FB181B78814AD356DBB21900FFF7F8FEDE
:10C630007F4B00221A707F4E7B693B6000237B603A
:10C6400039687A680B005B0C1000C5031D430B00B2
:10C65000DC03FA22520000232000290080185941EF
:10C66000FA229200002301F049FE03000C00002290
:10C6700019003000FCF78CFD03003B623B6AFB6154
:10C68000FB69002B00D1A2E0FB6900220021180009
:10C69000FCF702FE9BE00C20FFF74AFB0300012B96
:10C6A00008D11F230822BA18D4183B20FFF738FE00
:10C6B000030023701F2308229446BC4463441B7864
:10C6C000152B4ED15C4B1B78DBB21A005B4B1B6801
:10C6D00019005B4B9200D150574B1B78DBB21A000C
:10C6E0000F23FB181978564B05329200D1501F23A7
:10C6F00008229446BC4463441A783B6919003F20E1
:10C70000FFF780FD3320FFF70BFE03005BB2002B29
:10C7100027DA3220FFF704FE030018000F23FB186E
:10C720001B780F22BA18127840498A56D2B21218D2
:10C73000D2B251B23D4AD1543B699A68414B1B6811
:10C740009A420ED13D4B00221A603F4B0F22BA187D
:10C7500012781A701E2308229446BC4463440122B6
:10C760001A701F2308229446BC4463441B78002B94
:10C770002DD01E2308229446BC4463441B78002B12
:10C7800025D11F2308229446BC44634400221A701A
:10C790003620FFF7F1FD0A20FCF7F8FD3520FFF702
:10C7A000BFFD03001A001F231340012BF0D13A20D4
:10C7B000FFF7E2FD3420FFF7DFFDC0463520FFF72D
:10C7C000AFFD03001A001F2313400D2BF6D1184BA9
:10C7D0001B78DBB201225340DBB2002B08D01E23B2
:10C7E00008229446BC4463441B78002B00D152E7D6
:10C7F000104B1800FCF706FD03003B623B6ABB616F
:10C80000BB69002B05D0BB69002200211800FCF792
:10C8100043FD1E2308229446BC4463441B78180041
:10C82000BD460BB0F0BDC0466C200020702000203B
:10C83000AF23002038240020B5230020B823002097
:10C84000BC230020A8260020B323002080B582B09E
:10C8500000AFFB1D00221A700EE0FB1D1A78FB1DB5
:10C860001978094B8900C958084B9200D150FB1D1B
:10C870001A78FB1D01321A70FB1D1B78032BECD9B3
:10C88000C046BD4602B080BD882000207820002030
:10C8900080B582B000AF0200FB1D1A70094B1B78F7
:10C8A000DBB2002B05D0FB1D1A78074B9200D35842
:10C8B00004E0FB1D1A78054B9200D3581800BD46C2
:10C8C00002B080BD68200020982000207820002041
:10C8D00080B584B000AF78600F23FB1800221A7077
:10C8E00027E00F23FB181B781800FFF7D1FF0F2359
:10C8F000FB181A787B681900FFF776FE031E10D02C
:10C90000012B0FD1244B1B78DBB2022B04D9224B15
:10C9100000221A70FFF79AFF204B00221A700123A1
:10C9200036E0C0460F23FB181A780F23FB1801329C
:10C930001A700F23FB181B78032BD2D9164B1B78C8
:10C94000DBB20133DAB2144B1A70134B1B78DBB233
:10C95000022B0DD9124B1B68F533FF331A00104B15
:10C960001A600F4BDB68FA2292009A180C4BDA60BF
:10C97000094B1B78DBB2142B07D9FFF767FF064B77
:10C9800000221A70054B01221A70FFF77FFB00236B
:10C990001800BD4604B080BDB223002068200020EE
:10C9A0007820002080B582B000AF02003960BB1D46
:10C9B0001A80A023DA05A123DB000721D150A02390
:10C9C000DB050C4A00219950A023DB05094A02210E
:10C9D0009950A023DA05A123DB000021D150064B9A
:10C9E0001800FCF7D3FCFFF731F9C046BD4602B092
:10C9F00080BDC0460C0500001027000080B500AFC8
:10CA0000FFF718FAFFF7E6F90200044B1A60044B2F
:10CA100000221A70C046BD4680BDC046A426002034
:10CA20007B23002080B582B000AFFB1D00221A706E
:10CA3000174B1B68174A934203D9FB1D64221A70D7
:10CA40001FE0134B1B68632B03D8FB1DFF221A70DA
:10CA500017E00F4B1B68104A934203D8FB1D0122BD
:10CA60001A700EE00A4B1B68642253430B4A94462B
:10CA70006344C821180001F0B5FB03001A00FB1D38
:10CA80001A70FB1D1B785BB21800BD4602B080BD5A
:10CA9000AC260020B6030000ED02000008DBFEFF1C
:10CAA00080B582B000AF7860A023DA05A123DB0057
:10CAB0000721D150A023DB05084A00219950A0236B
:10CAC000DB05064A02219950A023DA05A123DB00E9
:10CAD0000021D150C046BD4602B080BD0C0500000B
:10CAE00080B584B000AF78607B681B78002B15D1CF
:10CAF0000C4B1B883B211800FFF7B4F90300FB60C7
:10CB0000FB68BB60BB68002B05D0BB68002200211E
:10CB10001800FCF7C1FB044B00221A70C046BD464A
:10CB200004B080BD62200020AC23002080B58AB014
:10CB300000AF3B1D1C2200211800FBF769FB3B1DC9
:10CB400000221A603B1DA02212035A603B1DF022F6
:10CB500012039A603B1D03221A733B1D0022DA81E7
:10CB60003B1D00221A743B1D0C4A5A613B1D0C4AA6
:10CB70009A613B1D1800FEF709F903007B627B6A8E
:10CB80003B623B6A002B05D03B6A00220021180063
:10CB9000FCF782FBC046BD460AB080BDE1CA010079
:10CBA000A1CA010080B58CB000AF78604F4B1B88E4
:10CBB0004F4A934200D194E04E4B1B78002B00D19A
:10CBC0008FE00C23FB18102200211800FBF720FB3C
:10CBD000494B1A880C23FB181A800C23FB180122DE
:10CBE0009A700C23FB1800229A80444B11221A7071
:10CBF000424B00225A707B681B8A1800FFF716FA16
:10CC00000300FB62FB6ADAB23C4B9A70FB6A1B0AB8
:10CC1000DAB23A4BDA70FB6A1B0CDAB2374B1A7194
:10CC2000FB6A1B0EDAB2354B5A717B685B8A1800BF
:10CC3000FFF7FCF903005B00BB62BB6ADAB22F4B63
:10CC40009A71BB6A1B0ADAB22C4BDA71BB6A1B0CF5
:10CC5000DAB22A4B1A72BB6A1B0EDAB2274B5A722F
:10CC60007B681A7D254B9A72FFF7DCFE0300DAB26F
:10CC7000224BDA72224B1B687B627B6ADAB21F4B53
:10CC80001A737B6A1B0ADAB21C4B5A737B6A1B0C41
:10CC9000DAB21A4B9A737B6A1B0EDAB2174BDA734D
:10CCA000164B01221A74154B1B789AB21E23FB18DF
:10CCB0001A800C23FB181E22BA189A600C23FB184A
:10CCC0000E4ADA60094B1B880C22BA1811001800B2
:10CCD000FFF7E0F803003B623B6A002B01D1012320
:10CCE00000E000231800BD460CB080BD622000208B
:10CCF000FFFF00007A23002070230020782400200A
:10CD0000A826002080B586B000AF304B1B88304A83
:10CD1000934256D02F4B1B78002B52D03B00102251
:10CD200000211800FBF774FA2B4B1A883B001A807D
:10CD30003B0001229A703B0000229A80274B072279
:10CD40001A70264BF1225A70254B1B68DAB2234B1E
:10CD50009A70234B1A68FF231B0213401B0ADAB296
:10CD60001E4BDA701E4B1A68FF231B0413401B0C6A
:10CD7000DAB21A4B1A711A4B1B681B0E1B061B0EDC
:10CD8000DAB2164B5A71154B01229A71134B1B786C
:10CD90009AB21223FB181A803B001222BA189A602A
:10CDA0003B000E4ADA60094B1B883A00110018005C
:10CDB000FFF770F803007B617B69002B01D1012331
:10CDC00000E000231800BD4606B080BD62200020B0
:10CDD000FFFF00007A230020702300207824002029
:10CDE000A826002080B584B000AF0200FB1D1A7099
:10CDF000FB1D1B78002B19D0032B00D026E0154B10
:10CE000001221A70144B154900221800FCF7C0F9D2
:10CE10000300FB60FB68BB60BB68002B15D0BB68E0
:10CE2000002200211800FCF737FA0EE0094B00221F
:10CE30001A70A023DA05A123DB000121D150A02321
:10CE4000DB05074A0021995000E0C046C046BD46B8
:10CE500004B080BDAC230020F823002066E600006B
:10CE60000C05000090B58DB000AF1423FB181A78A4
:10CE70000F218A43111C01220A431A701423FB1844
:10CE80001A780F210A40111C10220A431A700C2331
:10CE9000FB181800FEF7DEFF0300FB62FB6ABB62B3
:10CEA000BB6A002B05D0BB6A002200211800FCF7EA
:10CEB000F3F93900544A0B0011CA11C312781A70E1
:10CEC0000923CB18032200211800FBF7A1F90C233A
:10CED000FB189B781B09DAB23B001A723B001B7AE5
:10CEE000092B04D93B001B7A3733DBB203E03B004C
:10CEF0001B7A3033DBB23A0013720C23FB189B7899
:10CF00000F221340DAB23B005A723B005B7A092BC6
:10CF100004D93B005B7A3733DBB203E03B005B7A3A
:10CF20003033DBB23A0053720C23FB185B781B09D9
:10CF3000DAB23B009A723B009B7A092B04D93B0082
:10CF40009B7A3733DBB203E03B009B7A3033DBB2B2
:10CF50003A0093720C23FB185B780F221340DAB26D
:10CF60003B00DA723B00DB7A092B04D93B00DB7A09
:10CF70003733DBB203E03B00DB7A3033DBB23A001D
:10CF8000D37239001423FB180C221800FEF772FF2D
:10CF90000300FB62FB6A7B627B6A002B05D07B6A25
:10CFA000002200211800FCF777F91823FB1808224B
:10CFB00000211800FBF72CF91823FB1810221A8007
:10CFC0001823FB1820225A801823FB1800229A806D
:10CFD0001823FB1896229200DA801823FB181800F9
:10CFE000FEF744FF0300FB62FB6A3B623B6A002BD7
:10CFF00005D03B6A002200211800FCF74DF9C0461D
:10D00000BD460DB090BDC0466CE5010090B5ABB01B
:10D0100002AF6023FB18382200211800FBF7F8F854
:10D020006023FB180622DA706023FB1800229A7036
:10D030006023FB1802221A702823FB1838220021D3
:10D040001800FBF7E5F82823FB1801221A82282391
:10D05000FB181C4A5A613B1D180024231A000021AA
:10D06000FBF7D6F83B1D01221A733B1DA0221A6163
:10D070003B1D1E225A61144C3A1D2823F9186023C7
:10D08000F818002300932300FEF740F803009C22C9
:10D09000BA1813609C23FB181B689822BA181360F7
:10D0A0009823FB181B68002B07D09823FB181B68DC
:10D0B000002200211800FCF7EFF8C046BD4629B059
:10D0C00090BDC04664200020E5CD010080B594B03D
:10D0D00000AF0200FB1D1A702823FB180322002159
:10D0E0001800FBF795F82823FB189A7806218A4345
:10D0F000111C02220A439A702823FB181A780F2168
:10D100008A43111C01220A431A702823FB181A783B
:10D110000F210A40111C10220A431A702823FB1801
:10D120005A780F218A43111C01220A435A7028237E
:10D13000FB185A780F210A40111C10220A435A701A
:10D140002C23FB181C2200211800FBF761F82C236C
:10D15000FB181A7802210A431A702C23FB181A783C
:10D1600010210A431A702C23FB181A7804210A4351
:10D170001A702C23FB1800225A602C23FB18002263
:10D18000DA602C23FB1800221A612C23FB182822BA
:10D19000BA185A612C23FB1800229A611023FB183D
:10D1A000FA1D12789A701023FB181F2252421A801F
:10D1B0000C23FB18032200211800FBF729F80C238D
:10D1C000FB181A780F218A43111C01220A431A7096
:10D1D0000C23FB181A780F210A40111C10220A4355
:10D1E0001A700C23FB185A780F218A43111C012254
:10D1F0000A435A700C23FB185A780F210A40111C5D
:10D2000010220A435A700C23FB189A7806218A438D
:10D21000111C02220A439A700C23FB189A780821E9
:10D220008A439A700C23FB189A7810218A439A70CB
:10D230000C23FB189A7801210A439A701423FB18D7
:10D24000142200211800FAF7E3FF1423FB18102220
:10D25000BA181A601423FB180C22BA185A60142347
:10D26000FB1800221A811423FB1800225A81142370
:10D27000FB1814229A811423FB1800221A610D4B0B
:10D2800018880D4B1422BA182C217918FEF7FEFDD0
:10D290000300FB64FB6CBB64BB6C002B05D0BB6C58
:10D2A000002200211800FBF7F7FFC046BD4614B06E
:10D2B00080BDC046782300207023002080B584B054
:10D2C00000AF3B1D01229A703B1D202252421A8062
:10D2D0000D4A3B1D19000120FEF7D4FD0300FB6041
:10D2E000FB68BB60BB68002B05D0BB680022002137
:10D2F0001800FBF7D1FF3B1D9B781800FFF7E6FEF7
:10D30000C046BD4604B080BD7823002080B586B0FD
:10D3100000AF7860274B1B78DBB2002B45D0A023F1
:10D32000DB05254A9B5807225340012213401ED09B
:10D33000A023DA05A123DB000121D150A023DB05C6
:10D340001E4A002199501E4B1E4900221800FBF76F
:10D350001FFF03007B617B693B613B69002B24D08D
:10D360003B69002200211800FBF796FF1DE0A02377
:10D37000DB05124A01219950A023DA05A123DB0025
:10D380000021D1500E4B104900221800FBF700FF7E
:10D3900003007B617B69FB60FB68002B05D0FB68A9
:10D3A000002200211800FBF777FFC046BD4606B0FB
:10D3B00080BDC046AC230020040500000C05000021
:10D3C000F823002066E600009A19000080B582B0BC
:10D3D00000AF7860034B01221A70C046BD4602B010
:10D3E00080BDC046AE23002080B582B000AF78601B
:10D3F000044B1B685A1C034B1A60C046BD4602B062
:10D4000080BDC046B823002080B582B000AF0320A5
:10D41000FDF77AFF03007B607B683B603B68002B75
:10D4200005D03B68002200211800FBF735FFC046FD
:10D43000BD4602B080BDC04680B588B000AF802335
:10D44000DA05A323DB000121D1508023DA058223F2
:10D450005B000021D1508023DB0501229A60C04689
:10D460008023DA0582235B00D358002BF8D0314AA1
:10D47000002305210020FBF7B7FD0300FB61FB69DA
:10D48000BB61BB69002B05D0BB69002200211800DD
:10D49000FBF702FF284A294B00211800FBF728FE62
:10D4A00003007B617B693B613B69002B05D03B69D5
:10D4B000002200211800FBF7EFFE214A214B00213A
:10D4C0001800FBF715FE03007B617B69FB60FB68BE
:10D4D000002B05D0FB68002200211800FBF7DCFEC2
:10D4E000194A1A4B00211800FBF702FE03007B616A
:10D4F0007B69BB60BB68002B05D0BB6800220021A4
:10D500001800FBF7C9FE124A124B01211800FBF765
:10D51000EFFD03007B617B697B607B68002B05D09E
:10D520007B68002200211800FBF7B6FEC046BD460E
:10D5300008B080BD94240020CDC0010064E5010046
:10D540000DD301005CE50100CDD3010060E50100D1
:10D55000E9D3010068E5010080B582B000AF3B006F
:10D5600002221A703B0000225A703B0000225A60CF
:10D570003B001800FBF7C8FE1020FEF7FFFB012060
:10D58000FEF734FC03210720FEF7F2FA0720FEF72E
:10D59000D9FA0920FEF798FB0920FEF7B7FBC04631
:10D5A000BD4602B080BDC04680B584B000AF0F2339
:10D5B000FB1800221A704D4B00221A704C48802331
:10D5C0005B0200221900FBF7E3FD0300BB60BB68B0
:10D5D0007B607B68002B05D07B680022002118004F
:10D5E000FBF75AFE0920FEF781FB424B00221A602E
:10D5F0000F23FB1800221A7029E00A20FBF7C6FE51
:10D600003D4B01221A70FEF701FCC0463A4B1B78D5
:10D61000DBB2002B07D0354B1B78DBB20122534025
:10D62000DBB2002BF2D10F23FB181B78002B07D0A5
:10D63000324B1B681A002F4B1B68D2182D4B1A60F7
:10D640000F23FB181A780F23FB1801321A700F23CF
:10D65000FB181B780A2B07D8244B1B78DBB201225E
:10D660005340DBB2002BC8D1214B1800FBF7CAFD99
:10D670000300BB60BB683B603B68002B05D03B6888
:10D68000002200211800FBF707FEFEF7C9FB092066
:10D69000FEF73CFB154B1B78DBB201225340DBB29B
:10D6A000002B09D0134B1B680A21180000F09AFDCB
:10D6B00003001A000F4B1A600E4B1B68104A93426E
:10D6C00007D80C4B1B68642B03D90E4B01221A7030
:10D6D00007E0084B1B680C4A934202D9094B002211
:10D6E0001A70C046BD4604B080BDC046AF230020BE
:10D6F00038240020AC2600207B230020A426002014
:10D70000C5020000B1230020EE02000080B584B005
:10D7100000AF78607B680633FB60FB681A88254B96
:10D720009B889A420DD1FB681B8B022B09D1FB68A9
:10D730001A331800FEF7BAFB03001A001E4B1A70CA
:10D7400033E0FB681A881B4B1B889A422DD1FB687B
:10D750001B8B002B29D0FB681B8B022B25D0062BA3
:10D7600000D022E0FB689B7E062B1DD1FB68DB7E90
:10D77000012B19D1FB681C3319000823FB18042264
:10D78000180000F0C5FEBA680C4B1A600C4B012261
:10D790001A70A023DA05A123DB000221D150A023B7
:10D7A000DB05084A00219950C046C046BD4604B07A
:10D7B00080BDC046702300207A230020A8260020C8
:10D7C000B02300200C05000080B586B000AF786063
:10D7D0007B681B88132B36D004DC102B07D0112B51
:10D7E0001BD062E0502B58D0522B41D05DE07B68BB
:10D7F0009A88304B1A80304B00221A702F4B01222E
:10D800001A70A023DB052E4A01219950A023DA05C6
:10D81000A123DB000021D15047E0264B01225242D8
:10D820001A80254B00221A70244B00221A70A02364
:10D83000DA05A123DB000121D150A023DB05204A1A
:10D840000021995031E01B4B1888002300228521CC
:10D85000FEF714FB03007B617B693B613B69002B96
:10D8600020D03B69002200211800FBF715FD19E0CC
:10D87000104B1888002300220021FEF70FFB030045
:10D880007B617B69FB60FB68002B0DD0FB6800228D
:10D8900000211800FBF700FD06E07B681800FFF789
:10D8A00035FF02E0C04600E0C046C046BD4606B0B7
:10D8B00080BDC04662200020AC230020AD230020A4
:10D8C0000C05000080B582B000AF78607B6818005E
:10D8D000FDF7B2FB7B681800FFF776FF7B68180046
:10D8E000FDF7D0FEC046BD4602B080BD80B58CB00D
:10D8F00000AF3649002348220820FEF7A9F80300AC
:10D90000FB62FB6ABB62BB6A002B05D0BB6A0022CC
:10D9100000211800FBF7C0FC0C23FB180822002193
:10D920001800FAF775FC0C23FB181A7801218A43BA
:10D930001A700C23FB181800FEF7B4FA03007B6280
:10D940007B6A3B623B6A002B05D03B6A00220021C8
:10D950001800FBF7A1FC3B1D1800FEF77BFA030043
:10D960007B627B6AFB61FB69002B05D0FB690022AF
:10D9700000211800FBF790FC3B1D00221A703B1D94
:10D9800019000020FEF762FA03007B627B6ABB612C
:10D99000BB69002B05D0BB69002200211800FBF7F2
:10D9A0007BFC0B4B1800FEF799F803007B627B6A47
:10D9B0007B617B69002B05D07B6900220021180068
:10D9C000FBF76AFCC046BD460CB080BD5C2600205B
:10D9D000C5D8010080B584B000AFFDF729FA030077
:10D9E000FB60FB68BB60BB68002B05D0BB680022F6
:10D9F00000211800FBF750FC1C4B1B78DBB2002BFE
:10DA000018D01B4B1B8813211800FEF72BFA0300BC
:10DA1000FB60FB687B607B68002B05D07B68002285
:10DA200000211800FBF738FCC046104B1B78DBB216
:10DA3000002BFAD10F4B1B78DBB2002B11D0FEF775
:10DA40000DFA0300FB60FB683B603B68002B05D0D0
:10DA50003B68002200211800FBF71EFC054B00224A
:10DA60001A70C046BD4604B080BDC046AD2300203C
:10DA700062200020AC230020F0B589B000AFFFF792
:10DA8000A9FFFA239B001800FBF780FCA023DA050E
:10DA9000A123DB000721D150A023DB05514A00213F
:10DAA0009950FBF7D7FB03007B617B693B613B69C6
:10DAB000002B05D03B69002200211800FBF7ECFB8E
:10DAC000494B1A68494B1B68D31AFB61484B1B78BA
:10DAD000DBB2002B2BD0474B1B68FA69D31AFB61D2
